:100000000C9446000C9465000C9465000C946500FB
:100010000C9465000C9465000C9465000C946500CC
:100020000C9465000C9465000C9465000C946500BC
:100030000C9465000C94DE000C9465000C94650033
:100040000C9465000C9465000C9465000C9465009C
:100050000C9465000C9465000C9465000C9465008C
:100060000C9465000C9465000C9465000C9465007C
:100070000C9465000C9465000C9465000C9465006C
:100080000C9465000C9465000C94650011241FBE4F
:10009000CFEFD0E4DEBFCDBF11E0A0E0B1E0E2E3FE
:1000A000F4E100E00BBF02C007900D92A235B1074A
:1000B000D9F721E0A2E5B1E001C01D92A639B2074F
:1000C000E1F70E9475060C94170A0C940000CF9378
:1000D000DF9300D01F92CDB7DEB789837B836A831D
:1000E00089818A3031F48A819B81BC018DE00E9434
:1000F000670080EC90E0FC018081882F90E08072A6
:100100009927892BB1F386EC90E02981FC012083AB
:1001100080E090E00F900F900F90DF91CF910895C5
:10012000CF93DF93CDB7DEB781E890E02BE0FC0101
:10013000208388E890E02DE730E0FC0131832083C4
:100140008FE690E022E0FC01208384E890E0FC014F
:100150001182108280910E0190910F01A0911001E7
:10016000B09111018093530190935401A0935501D4
:10017000B09356018FE590E02FE530E0F901208142
:100180002068FC0120830000DF91CF910895CF9378
:10019000DF93CDB7DEB781E890E0FC01108200006C
:1001A000DF91CF910895CF93DF93CDB7DEB781E094
:1001B000809352010000DF91CF9108951F920F921A
:1001C00000905F000F92112400905B000F922F931C
:1001D0003F934F935F936F937F938F939F93AF93CF
:1001E000BF93EF93FF93CF93DF93CDB7DEB78091AB
:1001F000530190915401A0915501B091560101977E
:10020000A109B1098093530190935401A093550122
:10021000B09356018091530190915401A0915501E2
:10022000B0915601892B8A2B8B2B91F40E94D3001D
:1002300080910E0190910F01A0911001B0911101D8
:100240008093530190935401A0935501B0935601AC
:100250000000DF91CF91FF91EF91BF91AF919F91FE
:100260008F917F916F915F914F913F912F910F905F
:1002700000925B000F9000925F000F901F90189506
:10028000CF93DF9300D000D0CDB7DEB769837A83F8
:100290008B839C8389819A81AB81BC8180930E0181
:1002A00090930F01A0931001B093110180910E0162
:1002B00090910F01A0911001B09111018093530111
:1002C00090935401A0935501B093560100000F90F4
:1002D0000F900F900F90DF91CF9108950F931F9380
:1002E000CF93DF9300D000D0CDB7DEB769837A8398
:1002F0008B839C8380915B0190915C01A0915D0157
:10030000B0915E019C01AD0169817A818B819C81F4
:100310000E948308882309F477C020E030E0A90117
:1003200069817A818B819C810E948308882351F4A2
:1003300081E990E021E930E0F90120812870FC0199
:10034000208309C081E990E021E930E0F9012081B2
:100350002360FC01208328E539E344E75FE36981FA
:100360007A818B819C810E948308882344F488E9E8
:1003700090E02FEF3FEFFC013183208334C020E079
:1003800034E244EF56E469817A818B819C810E943A
:10039000A509181634F488E990E0FC011182108256
:1003A00022C008E910E020E030E040E053E4698139
:1003B0007A818B819C810E94AA09DC01CB019C017E
:1003C000AD0160E074E284EF9AE40E948808DC01E9
:1003D000CB01BC01CD010E94FA08DC01CB010197E1
:1003E000F8019183808384E990E0FC0111821082FE
:1003F00089819A81AB81BC8180935B0190935C0180
:10040000A0935D01B0935E0100000F900F900F90DC
:100410000F90DF91CF911F910F910895CF93DF93AC
:10042000CDB7DEB780E990E020E4FC01208381E9CC
:1004300090E02BE0FC01208360E070E0CB010E94A3
:100440006E010000DF91CF910895CF93DF93CDB778
:10045000DEB780E990E0FC01108281E990E0FC01C8
:1004600010820000DF91CF910895CF93DF9300D0E9
:10047000CDB7DEB789836A838981882F90E02A818E
:10048000222F30E002C0959587952A95E2F781707A
:10049000992721E0892B09F420E0822F0F900F90FB
:1004A000DF91CF910895CF93DF93CDB7DEB788E288
:1004B00090E02FEEFC012083000086E290E0FC013A
:1004C000808160E00E943502882311F481E3B8C086
:1004D00086E290E0FC01808161E00E943502882381
:1004E00011F484E3ADC086E290E0FC01808162E01B
:1004F0000E943502882311F487E3A2C086E290E0CF
:10050000FC01808163E00E943502882311F48AE2B5
:1005100097C088E290E02FEDFC012083000086E286
:1005200090E0FC01808160E00E943502882311F494
:1005300082E386C086E290E0FC01808161E00E9457
:100540003502882311F485E37BC086E290E0FC014C
:10055000808162E00E943502882311F488E370C034
:1005600086E290E0FC01808163E00E9435028823EE
:1005700011F480E365C088E290E02FEBFC0120835A
:10058000000086E290E0FC01808160E00E9435027C
:10059000882311F483E354C086E290E0FC0180815B
:1005A00061E00E943502882311F486E349C086E2A7
:1005B00090E0FC01808162E00E943502882311F402
:1005C00089E33EC086E290E0FC01808163E00E9406
:1005D0003502882311F483E233C088E290E02FE7EC
:1005E000FC012083000086E290E0FC01808160E055
:1005F0000E943502882311F481E422C086E290E053
:10060000FC01808161E00E943502882311F482E4BC
:1006100017C086E290E0FC01808162E00E94350212
:10062000882311F483E40CC086E290E0FC01808111
:1006300063E00E943502882311F484E401C080E065
:10064000DF91CF910895CF93DF9300D000D0CDB745
:10065000DEB79C838B83198285E290E0FC01808168
:1006600089830E9453028A838B819C818230910509
:10067000E9F0833091052CF4009771F0019789F02F
:1006800067C08430910509F44FC084309105B4F1FE
:10069000059709F453C05CC081E090E09C838B8394
:1006A0005DC082E090E09C838B8358C08A81882360
:1006B00029F482E090E09C838B834DC080915701A8
:1006C000882F90E08E5E9E4FFC0190818A81981762
:1006D00029F483E090E09C838B833DC08091570197
:1006E000882F90E08E5E9E4FFC0190818A81981742
:1006F00091F184E090E09C838B832DC08091570121
:10070000843029F485E090E09C838B8326C08A8125
:10071000882319F582E090E09C838B8380915701B8
:100720008F5F8093570119C08A81882321F482E06A
:1007300090E09C838B831092570110C08A8188239C
:1007400021F482E090E09C838B831092570106C0D5
:100750001C821B8203C0000001C000008B819C81B1
:1007600082309105B1F0833091052CF4009799F017
:10077000019751F015C08430910579F084309105CE
:1007800074F0059719F00CC019820AC081E08983C2
:1007900007C0000005C0000003C0000001C0000049
:1007A0008B819C810F900F900F900F90DF91CF91D4
:1007B0000895CF93DF9300D000D0CDB7DEB79C83F0
:1007C0008B8319821A8283E290E0FC0180818095FC
:1007D0008078898385E290E0FC0180818F778A832D
:1007E0008B819C818130910551F08230910591F08F
:1007F000892BD9F481E090E09C838B8319C0898197
:1008000088231CF482E090E002C081E090E09C83A9
:100810008B830EC0898188231CF081E090E002C0A8
:1008200082E090E09C838B8303C01C821B820000CB
:100830008B819C818130910541F08230910519F0C6
:10084000892B29F005C01A8203C0000001C00000F6
:100850008B819C810F900F900F900F90DF91CF9123
:100860000895CF93DF9300D01F92CDB7DEB79B835F
:100870008A83198280E290E0FC01808180958983DF
:100880008A819B818230910501F1833091052CF49E
:10089000009769F0019781F07DC08430910551F196
:1008A00084309105DCF0059709F450C073C081E0F5
:1008B00090E09B838A8374C0109258011092590172
:1008C00082E090E09B838A836BC0898188230CF04F
:1008D00064C084E090E09B838A835FC080915A016A
:1008E000813009F05CC010925A0182E090E09B8355
:1008F0008A8355C080915801863049F483E090E0A6
:100900009B838A83109258011092590149C08091AB
:100910005901282F30E080915801882F90E0880FEE
:10092000991F815D9E4FFC018081918128173907B5
:100930003CF01092590185E090E09B838A8330C09F
:10094000809159018F5F809359012AC0809159018C
:10095000282F30E080915801882F90E0880F991F50
:10096000855C9E4FFC01808191812817390764F0D6
:100970001092590184E090E09B838A838091580112
:100980008F5F809358010CC0809159018F5F8093D5
:10099000590106C01B821A8203C0000001C000007A
:1009A0008A819B818230910559F1833091052CF425
:1009B000009741F1019741F12AC08430910531F04F
:1009C000843091051CF10597A9F021C08091580150
:1009D000882F90E0880F991F880F991F895E9E4F7E
:1009E000FC0180819181A281B381BC01CD010E9473
:1009F0006E010DC060E070E0CB010E946E0107C087
:100A0000000005C0000003C0000001C000008A8192
:100A10009B810F900F900F90DF91CF910895CF930E
:100A2000DF9300D01F92CDB7DEB79B838A831982F4
:100A300080E290E0FC018081809589838A819B819E
:100A400082309105C1F0833091052CF4009749F074
:100A5000019761F02CC083309105A9F00497D9F07B
:100A600026C081E090E09B838A8329C082E090E0E9
:100A70009B838A8324C089818823E4F483E090E007
:100A80009B838A8317C089818823B4F084E090E037
:100A90009B838A8311C080915801882379F482E076
:100AA00090E09B838A8381E080935A0107C01B8278
:100AB0001A8205C0000003C0000001C000008A8146
:100AC0009B818230910571F0833091052CF4009761
:100AD00059F0019759F00FC08330910549F0049700
:100AE00049F009C0000007C0000005C0000003C0B5
:100AF000000001C000008A819B810F900F900F9031
:100B0000DF91CF910895CF93DF9300D000D000D034
:100B1000CDB7DEB79E838D8383E290E0FC018081B8
:100B200080958B83198285E290E0FC018081898326
:100B30001C820E9453028C8381E08A838D819E8176
:100B400082309105F1F0833091052CF4009749F043
:100B5000019761F03EC083309105F1F0049771F187
:100B600038C081E090E09E838D833DC08B818823D7
:100B70009CF58C818A3281F582E090E09E838D83A2
:100B80002BC08B81882354F18C818A3239F183E028
:100B900090E09E838D8322C08A81853038F081E089
:100BA0008A8381E090E09E838D831AC08C818823A4
:100BB000B9F084E090E09E838D8312C08C818823FD
:100BC00089F48A818F5F8A8383E090E09E838D839E
:100BD00009C01E821D8207C0000005C0000003C0BE
:100BE000000001C000008D819E8182309105C9F016
:100BF000833091052CF40097B1F00197B1F018C043
:100C000083309105A1F0049709F012C08A81882FE2
:100C100090E08E5E9E4F2C81FC01208384E08983CE
:100C200007C0000005C0000003C0000001C00000B4
:100C300085E290E02981FC0120838D819E812696AA
:100C40000FB6F894DEBF0FBECDBFDF91CF910895F0
:100C5000CF93DF93CDB7DEB72C970FB6F894DEBFF6
:100C60000FBECDBF6D837E838F83988729873A8798
:100C70004B875C878D819E81AF81B88529853A85B8
:100C80004B855C85BC01CD010E946108DC01CB0174
:100C900089839A83AB83BC8389819A81AB81BC8130
:100CA000892B8A2B8B2B29F489859A85AB85BC856A
:100CB00011C089859A85AB85BC858D839E83AF8362
:100CC000B88789819A81AB81BC8189879A87AB87F4
:100CD000BC87D0CFBC01CD012C960FB6F894DEBFF7
:100CE0000FBECDBFDF91CF9108950F931F93CF9388
:100CF000DF93CDB7DEB763970FB6F894DEBF0FBEB4
:100D0000CDBF81E290E0FC01108282E290E02FEF03
:100D1000FC01208384E290E02FE7FC01208385E240
:100D200090E020E8FC01208387E290E020EFFC01C6
:100D3000208388E290E02FE0FC0120838AE0E7E452
:100D4000F1E0DE011A9601900D928A95E1F785E0B7
:100D500090E098878F838FEF8987898580935F01E3
:100D600081E090E0A0E0B0E08093600190936101A9
:100D7000A0936201B0936301809160019091610141
:100D8000A0916201B0916301809364019093650129
:100D9000A0936601B093670183E293E090936901A9
:100DA00080936801898580936A0181E090E0A0E0EA
:100DB000B0E080936B0190936C01A0936D01B093B0
:100DC0006E0180916B0190916C01A0916D01B091C9
:100DD0006E0180936F0190937001A0937101B093A5
:100DE000720189ED93E0909374018093730189857A
:100DF0008093750188EC90E0A0E0B0E080937601EC
:100E000090937701A0937801B09379018091760156
:100E100090917701A0917801B091790180937A0146
:100E200090937B01A0937C01B0937D0181E394E0DA
:100E300090937F0180937E0189858093800181E07A
:100E400090E0A0E0B0E08093810190938201A093B4
:100E50008301B09384018091810190918201A091DE
:100E60008301B09184018093850190938601A093C2
:100E70008701B09388018FE095E090938A01809379
:100E80008901898580938B0181E090E0A0E0B0E04A
:100E900080938C0190938D01A0938E01B0938F016C
:100EA00080918C0190918D01A0918E01B0918F0164
:100EB0008093900190939101A0939201B09393013C
:100EC00083E895E090939501809394018A859B85B2
:100ED000FC0181819281A381B4818B839C83AD834A
:100EE000BE8381E090E09A83898325C089819A81BD
:100EF000880F991F9E012F5F3F4F820F931F099606
:100F0000FC0180819181FC012181328143815481E6
:100F10008B819C81AD81BE81BC01CD010E942806E0
:100F2000DC01CB018B839C83AD83BE8389819A8155
:100F300001969A83898329813A818F819885281720
:100F40003907A0F28B819C81AD81BE81BC01CD01AE
:100F50000E9440010E9490000E940E021A82198293
:100F6000A0C089819A81880F991F9E012F5F3F4FF2
:100F7000820F931F0996FC0180819181FC012581DC
:100F800036814781508589819A81880F991FBE01DA
:100F90006F5F7F4F860F971F0996FC0180819181BB
:100FA000FC0181819281A381B481281739074A0706
:100FB0005B0709F045C089819A81880F991F9E01BE
:100FC0002F5F3F4F820F931F0996FC010081118113
:100FD00089819A81880F991F9E012F5F3F4F820F51
:100FE000931F0996FC0180819181FC012185328546
:100FF00089819A81880F991FAE014F5F5F4F840FDF
:10100000951F0996FC0180819181FC018081082E49
:10101000000C990BF9010995F801808389819A8167
:10102000880F991F9E012F5F3F4F820F931F0996D4
:10103000FC0180819181FC01158216821782108645
:1010400089819A81880F991F9E012F5F3F4F820FE0
:10105000931F0996FC016081718189819A81880FB3
:10106000991F9E012F5F3F4F820F931F0996FC012E
:1010700080819181FC0125813681478150858B815A
:101080009C81AD81BE81820F931FA41FB51FFB0100
:1010900085839683A783B08789819A8101969A83F5
:1010A000898329813A818F8198852817390708F427
:1010B00058CF0000809152018823E1F31092520131
:1010C0004DCFA1E21A2EAA1BBB1BFD010DC0AA1F0A
:1010D000BB1FEE1FFF1FA217B307E407F50720F0A1
:1010E000A21BB30BE40BF50B661F771F881F991F1C
:1010F0001A9469F760957095809590959B01AC0165
:10110000BD01CF0108950E94300908F481E00895DF
:101110000E949C080C946B090E94640958F00E947C
:101120005D0940F029F45F3F29F00C9454095111F6
:101130000C949F090C945A090E947C0968F3992326
:10114000B1F3552391F3951B550BBB27AA276217C3
:101150007307840738F09F5F5F4F220F331F441FD0
:10116000AA1FA9F335D00E2E3AF0E0E832D0915004
:101170005040E695001CCAF72BD0FE2F29D0660FF1
:10118000771F881FBB1F261737074807AB07B0E834
:1011900009F0BB0B802DBF01FF2793585F4F3AF03A
:1011A0009E3F510578F00C9454090C949F095F3FC1
:1011B000E4F3983ED4F3869577956795B795F795C0
:1011C0009F5FC9F7880F911D9695879597F90895A8
:1011D000E1E0660F771F881FBB1F62177307840744
:1011E000BA0720F0621B730B840BBA0BEE1F88F753
:1011F000E09508950E9401096894B1110C949F092B
:1012000008950E94840988F09F5798F0B92F992774
:10121000B751B0F0E1F0660F771F881F991F1AF0E1
:10122000BA95C9F714C0B13091F00E949E09B1E09F
:1012300008950C949E09672F782F8827B85F39F09E
:10124000B93FCCF3869577956795B395D9F73EF47A
:1012500090958095709561957F4F8F4F9F4F089522
:10126000990F0008550FAA0BE0E8FEEF16161706B7
:10127000E807F907C0F012161306E407F50798F01F
:10128000621B730B840B950B39F40A2661F0232B38
:10129000242B252B21F408950A2609F4A140A695B4
:1012A0008FEF811D811D089597F99F6780E870E099
:1012B00060E008959FEF80EC089500240A941616CC
:1012C000170618060906089500240A941216130634
:1012D000140605060895092E0394000C11F48823C2
:1012E00052F0BB0F40F4BF2B11F460FF04C06F5FDE
:1012F0007F4F8F4F9F4F089557FD9058440F551FB4
:1013000059F05F3F71F04795880F97FB991F61F087
:101310009F3F79F087950895121613061406551FFE
:10132000F2CF4695F1DF08C0161617061806991F6A
:10133000F1CF86957105610508940895E894BB275F
:1013400066277727CB0197F908950E94300908F4A2
:101350008FEF08950E94BD090C946B090E945D09EE
:1013600038F00E94640920F0952311F00C94540980
:101370000C945A0911240C949F090E947C0970F363
:10138000959FC1F3950F50E0551F629FF001729F2A
:10139000BB27F00DB11D639FAA27F00DB11DAA1F39
:1013A000649F6627B00DA11D661F829F2227B00D86
:1013B000A11D621F739FB00DA11D621F839FA00D11
:1013C000611D221F749F3327A00D611D231F849F61
:1013D000600D211D822F762F6A2F11249F575040B8
:1013E0009AF0F1F088234AF0EE0FFF1FBB1F661F33
:1013F000771F881F91505040A9F79E3F510580F0FC
:101400000C9454090C949F095F3FE4F3983ED4F385
:10141000869577956795B795F795E7959F5FC1F79F
:10142000FE2B880F911D9695879597F90895F8944E
:02143000FFCFEC
:101432000000000200000000670000000000010040
:10144200000023313233340000C443A4D0A4437BD0
:10145200D49243719DAE4300D002440000DC4301AC
:10146200000100030001000300040001000100016B
:10147200000100010001005F016A01750180018B1A
:02148200010067
:00000001FF
